:020000020000FC
:100000000C94020008E00EBF0FEF0DBFFF24AED12D
:100010003ED2BAD17DD172D1389A399A3A9A429861
:10002000C9D1033489F00B3281F00D3271F00A32FC
:1000300061F00F3251F00D3349F0003340F00A33D4
:1000400030F421D018D2ECCF04C009C042C013D282
:10005000E7CF42985DD152D10ED20C94100010918E
:100060000201123011F454D149D110910201103023
:1000700039F400930301102F97D111E0109302017E
:10008000FAD10C94100010910201123011F440D1F9
:1000900035D1102F105320910201203061F42091AE
:1000A0000001322F220F322F220F220F230F210F98
:1000B000209300010BC020910101322F220F322F1B
:1000C000220F220F230F210F20930101102F6CD13B
:1000D0000895102F69D1109103011B3211F40C9473
:1000E00080001D3211F40C9488001A3211F40C9423
:1000F00098001F3211F40C941601BDD10C9410001D
:100100004091000110910101410F33270C947101BE
:100110001091000120910101121728F4422F411B78
:1001200031E00C947101412F421B33270C94710173
:100130001091000120910101129F702D812D112439
:1001400000EC2CD106D012E01093020194D10C9453
:1001500010001127833038F011F4783E20F0785EDB
:1001600083401395F7CF2227882311F4743620F0AB
:10017000745680402395F8CF3327882311F47A30C2
:1001800020F07A5080403395F8CF00E3103081F0B2
:10019000112F100F09D1122F00E3100F05D1132FCB
:1001A00000E3100F01D1172F00E3100FFDD00895C9
:1001B000203061F0122F100FF7D0132F00E3100F33
:1001C000F3D0172F00E3100FEFD00895303019F05F
:1001D000132F100FE9D0172F00E3100FE5D008956B
:1001E00000271127182F88271A3018F01A508395E6
:1001F000FBCF012F10E10027770F881F001F0A3067
:1002000010F00A5073951A95B9F7089500ECC6D00E
:100210001FE4CAD016E5C8D015E4C6D012E5C4D094
:1002200012E01093020127D10C94100010910001EC
:1002300020910101203011F40C945E01C22E44275C
:10024000712F8827721718F0721B4395FBCF00ECB3
:10025000A5D062D01EE2A8D02C2D372F7727882773
:100260000AE0730F8F1D0A95E1F7AA24882311F481
:10027000721720F0721B8F09A394F8CF372F182F15
:10028000772788270AE0730F811F0A95E1F7BB24BF
:10029000882311F4721720F0721B8F09B394F8CFE2
:1002A0001A2D00E3100F80D01B2D00E3100F7CD01F
:1002B00012E010930201DFD00C94100000EC6ED01D
:1002C000429A15E471D012E56FD012E56DD01FE4AB
:1002D0006BD012E569D012E010930201CCD00C94DF
:1002E000100000EC5BD0313011F41DE25DD014D071
:1002F00012E010930201BFD00C94100000E00093B4
:10030000000100930101009303010093020108958D
:1003100001E044D0BCD008951127443618F044566B
:100320001395FBCF22274A3018F04A502395FBCF74
:1003300000E3103079F0312F300F132F35D0322FEA
:1003400000E3300F132F30D0342F00E3300F132F82
:100350002BD00895203021F0322F300F132F24D0CE
:10036000342F00E3300F132F1FD008950FEF04B97F
:10037000002705B9389A399A409841980FE00AB990
:1003800000EF0F600BB9089508E308D00CE006D029
:1003900006E004D001E002D07AD0089505B9419872
:1003A000409A409870D0089515B9419A409A409863
:1003B0006AD008950EEF0BB966D019B1107F103FC7
:1003C000B1F40DEF0BB95FD019B1107F103FC1F43C
:1003D0000BEF0BB958D019B1107F103FD1F407EFD4
:1003E0000BB951D019B1107F103FE1F4E3CF14FFE6
:1003F00022C015FF22C016FF22C017FF22C0DACF8D
:1004000014FF21C015FF21C016FF21C017FF21C016
:10041000D1CF14FF20C015FF20C016FF20C017FF4A
:1004200020C0C8CF14FF1FC015FF1FC016FF1FC07C
:1004300017FF1FC0BFCF07E3089508E3089509E33E
:1004400008950FE2089504E3089505E3089506E38F
:1004500008950AE2089501E3089502E3089503E38D
:1004600008950DE2089503E4089500E308950DE36F
:1004700008950BE2089500EF0BB905D019B1107F74
:10048000103FC9F7089558E25A95F1F7089568ECBE
:08049000FADF6A95E9F708950F
:00000001FF
