:020000020000FC
:100000000C94020008E00EBF0FEF0DBFFF24EE2797
:10001000FF2723D1B3D12FD1F2D0E7D042D103347F
:1000200089F00B3281F00D3271F00A3261F00F323B
:1000300051F00D3349F0003340F00A3330F41ED054
:1000400091D1ECCF04C007C03FC08CD1E7CFD7D04F
:10005000CCD088D1E3CF10910201123011F4CFD06F
:10006000C4D010910201103039F400930301102F15
:1000700012D111E01093020175D1D0CF109102017D
:10008000123011F4BCD0B1D0102F105320910201C6
:10009000203061F420910001322F220F322F220FE5
:1000A000220F230F210F209300010BC0209101018B
:1000B000322F220F322F220F220F230F210F2093D6
:1000C0000101102FE8D00895102FE5D01091030101
:1000D0001B3241F01D3269F01A32C9F01F3219F19A
:1000E00041D19CCF4091000110910101410F332774
:1000F00070C01091000120910101121720F4422FCD
:10010000411B31E066C0412F421B332762C0109172
:100110000001209101014427203019F0410F2A9558
:10012000FBCF332756C010910001209101012030F0
:10013000F9F1922F4427712F8827721718F0721B3C
:100140004395FBCF00ECA1D05ED01EE2A4D0292FB6
:10015000372F772788270AE0730F8F1D0A95E1F75D
:10016000EE27882311F4721720F0721B8F09E39594
:10017000F8CF372F182F772788270AE0730F811FB2
:100180000A95E1F7FF27882311F4721720F0721BFC
:100190008F09F395F8CF1E2F00E3100F7CD01F2F8F
:1001A00000E3100F78D012E010930201DBD036CFBD
:1001B00000EC6BD015E46FD012E56DD012E56BD07A
:1001C0001FE469D012E567D012E010930201CAD093
:1001D00025CF00EC5AD0313011F41DE25CD013D0A1
:1001E00012E010930201BED019CF00E0009300018D
:1001F000009301010093030100930201089501E0BF
:1002000044D0BCD008951127443618F044561395B5
:10021000FBCF22274A3018F04A502395FBCF00E34A
:10022000103079F0312F300F132F35D0322F00E3FB
:10023000300F132F30D0342F00E3300F132F2BD07B
:100240000895203021F0322F300F132F24D0342F77
:1002500000E3300F132F1FD008950FEF04B90027CC
:1002600005B9389A399A409841980FE00AB900EFD9
:100270000F600BB9089508E308D00CE006D006E043
:1002800004D001E002D07AD0089505B94198409A8F
:10029000409870D0089515B9419A409A40986AD014
:1002A00008950EEF0BB966D019B1107F103FB1F46D
:1002B0000DEF0BB95FD019B1107F103FC1F40BEFF8
:1002C0000BB958D019B1107F103FD1F407EF0BB91B
:1002D00051D019B1107F103FE1F4E3CF14FF22C0D9
:1002E00015FF22C016FF22C017FF22C0DACF14FF6D
:1002F00021C015FF21C016FF21C017FF21C0D1CF9B
:1003000014FF20C015FF20C016FF20C017FF20C01B
:10031000C8CF14FF1FC015FF1FC016FF1FC017FF57
:100320001FC0BFCF07E3089508E3089509E30895C8
:100330000FE2089504E3089505E3089506E30895A0
:100340000AE2089501E3089502E3089503E308959E
:100350000DE2089503E4089500E308950DE3089580
:100360000BE2089500EF0BB905D019B1107F103FD3
:10037000C9F7089558E25A95F1F7089568ECFADF45
:060380006A95E9F70895FB
:00000001FF
