:020000020000FC
:1000000043616C63205265616479000008E00EBFB3
:100010000FEF0DBF0E9412010E942E000E943800B7
:100020001127222733274427552777270E945B0073
:10003000132F462F042F0E944B000E9405010E949F
:100040005B00232F0DE30E944B000E948B000E9457
:100050009D000E943A010E943800E2CF0FEF0AB9DA
:10006000389A399A3A9800E004B90FE005B9089532
:1000700001E00E94420008E30E9442000CE00E945E
:10008000420008950BB94198409A40980E94260179
:100090000E94260108950BB9419A409A40980E9407
:1000A00026010E94260108950591003019F00E9452
:1000B0004B00FACF0895332755270E94BF006F3FAA
:1000C000E1F36033A8F06A3398F4062F0E944B00E6
:1000D000062F0053832F9AE0899F302D300F5395C0
:1000E000523018F40E940501E8CF0E94050107C0B4
:1000F0006B3281F06D3271F06D3361F0DECF0E94B2
:10010000BF006F3FE1F36B3229F06D3219F06D33B0
:1001100009F0F5CF089577274B3219F04D3221F0D1
:100120000895312F320F0895312F321720F471E0E6
:10013000322F311B0895321B0895713019F40DE2EE
:100140000E944B00032F11270A5010F01395FCCF8B
:10015000065F1295012B10E3102E007F0695069581
:1001600006950695010FA02F012D0F70010FB02FDE
:100170000A2F0E944B000B2F0E944B0008958F9373
:100180009F9380E06FEF843051F10BB10F930F60BC
:100190000BB90EEF982F903019F0001F9A95FBCFF6
:1001A0009F91907F0F70092B0BB90E94260103B11C
:1001B0000F700F3091F090E0943079F001E0A92FAA
:1001C000A03019F0000FAA95FBCFA3B1A02319F41A
:1001D0000E94F20004C09395EFCF8395D4CF9F91F6
:1001E0008F910895F1E0EAEF082F000F000F090F3B
:1001F000E00F00E0F01F649108953738392F34354F
:10020000362A3132332D25303D2B0BB10F930F6041
:100210000BB90E94260103B10F709F919BB90F305B
:10022000A1F708958EEE809385008CE6809384007C
:1002300080E08093800083E080938100B09BFECFBC
:1002400080E08093810081E086BB08958FEF8093EA
:10025000850083EF8093840080E08093800083E0BA
:1002600080938100B09BFECF80E08093810083E08B
:1002700086BB089588E3809385008FEA809384008D
:1002800080E08093800085E080938100B09BFECF6A
:0C02900080E08093810083E086BB08952D
:00000001FF
