:020000020000FC
:100000000C94020008E00EBF0FEF0DBFC9D059D10C
:10001000D5D098D08DD0E8D0033481F00B3291F058
:100020000D3219F10D3339F0003330F00A3320F47A
:100030002FD03BD1F0CF52C038D1EDCF83D078D084
:1000400034D1E9CF10910201123011F47BD070D07D
:1000500010910201103039F400930301102FBED02B
:1000600011E01093020121D1D6CF1091020112307C
:1000700011F468D05DD010910201103039F4009372
:100080000301102FABD011E0109302010ED1C3CFAA
:1000900010910201123011F455D04AD0102F105394
:1000A00020910201203061F420910001322F220FB3
:1000B000322F220F220F230F210F209300010BC09C
:1000C00020910101322F220F322F220F220F230FF6
:1000D000210F20930101102F81D00895102F7ED081
:1000E000109103011B3221F01D3249F0DED093CF75
:1000F0004091000110910101410F33270DC0109173
:10010000000120910101121720F4422F411B31E020
:1001100003C0412F421B332700EC5AD0313011F479
:100120001DE25CD013D012E010930201BED073CF59
:1001300000E000930001009301010093030100938C
:100140000201089501E044D0BCD00895112744363F
:1001500018F044561395FBCF22274A3018F04A5026
:100160002395FBCF00E3103079F0312F300F132FA0
:1001700035D0322F00E3300F132F30D0342F00E36F
:10018000300F132F2BD00895203021F0322F300F55
:10019000132F24D0342F00E3300F132F1FD00895D6
:1001A0000FEF04B9002705B9389A399A4098419859
:1001B0000FE00AB900EF0F600BB9089508E308D00B
:1001C0000CE006D006E004D001E002D07AD0089519
:1001D00005B94198409A409870D0089515B9419A50
:1001E000409A40986AD008950EEF0BB966D019B1C5
:1001F000107F103FB1F40DEF0BB95FD019B1107F34
:10020000103FC1F40BEF0BB958D019B1107F103F5C
:10021000D1F407EF0BB951D019B1107F103FE1F4C1
:10022000E3CF14FF22C015FF22C016FF22C017FF24
:1002300022C0DACF14FF21C015FF21C016FF21C054
:1002400017FF21C0D1CF14FF20C015FF20C016FF1B
:1002500020C017FF20C0C8CF14FF1FC015FF1FC04C
:1002600016FF1FC017FF1FC0BFCF07E3089508E3A5
:10027000089509E308950FE2089504E3089505E35E
:10028000089506E308950AE2089501E3089502E35C
:10029000089503E308950DE2089503E4089500E34B
:1002A00008950DE308950BE2089500EF0BB905D012
:1002B00019B1107F103FC9F7089558E25A95F1F728
:0C02C000089568ECFADF6A95E9F70895EC
:00000001FF
